{
  "contractName": "Asset",
  "abi": [
    {
      "inputs": [
        {
          "internalType": "address",
          "name": "_proxyRegistryAddress",
          "type": "address"
        }
      ],
      "stateMutability": "nonpayable",
      "type": "constructor"
    },
    {
      "anonymous": false,
      "inputs": [
        {
          "indexed": true,
          "internalType": "address",
          "name": "owner",
          "type": "address"
        },
        {
          "indexed": true,
          "internalType": "address",
          "name": "approved",
          "type": "address"
        },
        {
          "indexed": true,
          "internalType": "uint256",
          "name": "tokenId",
          "type": "uint256"
        }
      ],
      "name": "Approval",
      "type": "event"
    },
    {
      "anonymous": false,
      "inputs": [
        {
          "indexed": true,
          "internalType": "address",
          "name": "owner",
          "type": "address"
        },
        {
          "indexed": true,
          "internalType": "address",
          "name": "operator",
          "type": "address"
        },
        {
          "indexed": false,
          "internalType": "bool",
          "name": "approved",
          "type": "bool"
        }
      ],
      "name": "ApprovalForAll",
      "type": "event"
    },
    {
      "anonymous": false,
      "inputs": [
        {
          "indexed": false,
          "internalType": "address",
          "name": "userAddress",
          "type": "address"
        },
        {
          "indexed": false,
          "internalType": "address payable",
          "name": "relayerAddress",
          "type": "address"
        },
        {
          "indexed": false,
          "internalType": "bytes",
          "name": "functionSignature",
          "type": "bytes"
        }
      ],
      "name": "MetaTransactionExecuted",
      "type": "event"
    },
    {
      "anonymous": false,
      "inputs": [
        {
          "indexed": true,
          "internalType": "address",
          "name": "previousOwner",
          "type": "address"
        },
        {
          "indexed": true,
          "internalType": "address",
          "name": "newOwner",
          "type": "address"
        }
      ],
      "name": "OwnershipTransferred",
      "type": "event"
    },
    {
      "anonymous": false,
      "inputs": [
        {
          "indexed": true,
          "internalType": "address",
          "name": "from",
          "type": "address"
        },
        {
          "indexed": true,
          "internalType": "address",
          "name": "to",
          "type": "address"
        },
        {
          "indexed": true,
          "internalType": "uint256",
          "name": "tokenId",
          "type": "uint256"
        }
      ],
      "name": "Transfer",
      "type": "event"
    },
    {
      "inputs": [],
      "name": "ERC712_VERSION",
      "outputs": [
        {
          "internalType": "string",
          "name": "",
          "type": "string"
        }
      ],
      "stateMutability": "view",
      "type": "function",
      "constant": true
    },
    {
      "inputs": [
        {
          "internalType": "address",
          "name": "to",
          "type": "address"
        },
        {
          "internalType": "uint256",
          "name": "tokenId",
          "type": "uint256"
        }
      ],
      "name": "approve",
      "outputs": [],
      "stateMutability": "nonpayable",
      "type": "function"
    },
    {
      "inputs": [
        {
          "internalType": "address",
          "name": "owner",
          "type": "address"
        }
      ],
      "name": "balanceOf",
      "outputs": [
        {
          "internalType": "uint256",
          "name": "",
          "type": "uint256"
        }
      ],
      "stateMutability": "view",
      "type": "function",
      "constant": true
    },
    {
      "inputs": [
        {
          "internalType": "address",
          "name": "userAddress",
          "type": "address"
        },
        {
          "internalType": "bytes",
          "name": "functionSignature",
          "type": "bytes"
        },
        {
          "internalType": "bytes32",
          "name": "sigR",
          "type": "bytes32"
        },
        {
          "internalType": "bytes32",
          "name": "sigS",
          "type": "bytes32"
        },
        {
          "internalType": "uint8",
          "name": "sigV",
          "type": "uint8"
        }
      ],
      "name": "executeMetaTransaction",
      "outputs": [
        {
          "internalType": "bytes",
          "name": "",
          "type": "bytes"
        }
      ],
      "stateMutability": "payable",
      "type": "function",
      "payable": true
    },
    {
      "inputs": [
        {
          "internalType": "uint256",
          "name": "tokenId",
          "type": "uint256"
        }
      ],
      "name": "getApproved",
      "outputs": [
        {
          "internalType": "address",
          "name": "",
          "type": "address"
        }
      ],
      "stateMutability": "view",
      "type": "function",
      "constant": true
    },
    {
      "inputs": [],
      "name": "getChainId",
      "outputs": [
        {
          "internalType": "uint256",
          "name": "",
          "type": "uint256"
        }
      ],
      "stateMutability": "view",
      "type": "function",
      "constant": true
    },
    {
      "inputs": [],
      "name": "getDomainSeperator",
      "outputs": [
        {
          "internalType": "bytes32",
          "name": "",
          "type": "bytes32"
        }
      ],
      "stateMutability": "view",
      "type": "function",
      "constant": true
    },
    {
      "inputs": [
        {
          "internalType": "address",
          "name": "user",
          "type": "address"
        }
      ],
      "name": "getNonce",
      "outputs": [
        {
          "internalType": "uint256",
          "name": "nonce",
          "type": "uint256"
        }
      ],
      "stateMutability": "view",
      "type": "function",
      "constant": true
    },
    {
      "inputs": [
        {
          "internalType": "address",
          "name": "owner",
          "type": "address"
        },
        {
          "internalType": "address",
          "name": "operator",
          "type": "address"
        }
      ],
      "name": "isApprovedForAll",
      "outputs": [
        {
          "internalType": "bool",
          "name": "",
          "type": "bool"
        }
      ],
      "stateMutability": "view",
      "type": "function",
      "constant": true
    },
    {
      "inputs": [
        {
          "internalType": "address",
          "name": "_to",
          "type": "address"
        }
      ],
      "name": "mintTo",
      "outputs": [],
      "stateMutability": "nonpayable",
      "type": "function"
    },
    {
      "inputs": [],
      "name": "name",
      "outputs": [
        {
          "internalType": "string",
          "name": "",
          "type": "string"
        }
      ],
      "stateMutability": "view",
      "type": "function",
      "constant": true
    },
    {
      "inputs": [],
      "name": "owner",
      "outputs": [
        {
          "internalType": "address",
          "name": "",
          "type": "address"
        }
      ],
      "stateMutability": "view",
      "type": "function",
      "constant": true
    },
    {
      "inputs": [
        {
          "internalType": "uint256",
          "name": "tokenId",
          "type": "uint256"
        }
      ],
      "name": "ownerOf",
      "outputs": [
        {
          "internalType": "address",
          "name": "",
          "type": "address"
        }
      ],
      "stateMutability": "view",
      "type": "function",
      "constant": true
    },
    {
      "inputs": [],
      "name": "renounceOwnership",
      "outputs": [],
      "stateMutability": "nonpayable",
      "type": "function"
    },
    {
      "inputs": [
        {
          "internalType": "address",
          "name": "from",
          "type": "address"
        },
        {
          "internalType": "address",
          "name": "to",
          "type": "address"
        },
        {
          "internalType": "uint256",
          "name": "tokenId",
          "type": "uint256"
        }
      ],
      "name": "safeTransferFrom",
      "outputs": [],
      "stateMutability": "nonpayable",
      "type": "function"
    },
    {
      "inputs": [
        {
          "internalType": "address",
          "name": "from",
          "type": "address"
        },
        {
          "internalType": "address",
          "name": "to",
          "type": "address"
        },
        {
          "internalType": "uint256",
          "name": "tokenId",
          "type": "uint256"
        },
        {
          "internalType": "bytes",
          "name": "_data",
          "type": "bytes"
        }
      ],
      "name": "safeTransferFrom",
      "outputs": [],
      "stateMutability": "nonpayable",
      "type": "function"
    },
    {
      "inputs": [
        {
          "internalType": "address",
          "name": "operator",
          "type": "address"
        },
        {
          "internalType": "bool",
          "name": "approved",
          "type": "bool"
        }
      ],
      "name": "setApprovalForAll",
      "outputs": [],
      "stateMutability": "nonpayable",
      "type": "function"
    },
    {
      "inputs": [
        {
          "internalType": "bytes4",
          "name": "interfaceId",
          "type": "bytes4"
        }
      ],
      "name": "supportsInterface",
      "outputs": [
        {
          "internalType": "bool",
          "name": "",
          "type": "bool"
        }
      ],
      "stateMutability": "view",
      "type": "function",
      "constant": true
    },
    {
      "inputs": [],
      "name": "symbol",
      "outputs": [
        {
          "internalType": "string",
          "name": "",
          "type": "string"
        }
      ],
      "stateMutability": "view",
      "type": "function",
      "constant": true
    },
    {
      "inputs": [
        {
          "internalType": "uint256",
          "name": "index",
          "type": "uint256"
        }
      ],
      "name": "tokenByIndex",
      "outputs": [
        {
          "internalType": "uint256",
          "name": "",
          "type": "uint256"
        }
      ],
      "stateMutability": "view",
      "type": "function",
      "constant": true
    },
    {
      "inputs": [
        {
          "internalType": "address",
          "name": "owner",
          "type": "address"
        },
        {
          "internalType": "uint256",
          "name": "index",
          "type": "uint256"
        }
      ],
      "name": "tokenOfOwnerByIndex",
      "outputs": [
        {
          "internalType": "uint256",
          "name": "",
          "type": "uint256"
        }
      ],
      "stateMutability": "view",
      "type": "function",
      "constant": true
    },
    {
      "inputs": [
        {
          "internalType": "uint256",
          "name": "_tokenId",
          "type": "uint256"
        }
      ],
      "name": "tokenURI",
      "outputs": [
        {
          "internalType": "string",
          "name": "",
          "type": "string"
        }
      ],
      "stateMutability": "pure",
      "type": "function",
      "constant": true
    },
    {
      "inputs": [],
      "name": "totalSupply",
      "outputs": [
        {
          "internalType": "uint256",
          "name": "",
          "type": "uint256"
        }
      ],
      "stateMutability": "view",
      "type": "function",
      "constant": true
    },
    {
      "inputs": [
        {
          "internalType": "address",
          "name": "from",
          "type": "address"
        },
        {
          "internalType": "address",
          "name": "to",
          "type": "address"
        },
        {
          "internalType": "uint256",
          "name": "tokenId",
          "type": "uint256"
        }
      ],
      "name": "transferFrom",
      "outputs": [],
      "stateMutability": "nonpayable",
      "type": "function"
    },
    {
      "inputs": [
        {
          "internalType": "address",
          "name": "newOwner",
          "type": "address"
        }
      ],
      "name": "transferOwnership",
      "outputs": [],
      "stateMutability": "nonpayable",
      "type": "function"
    },
    {
      "inputs": [],
      "name": "baseTokenURI",
      "outputs": [
        {
          "internalType": "string",
          "name": "",
          "type": "string"
        }
      ],
      "stateMutability": "pure",
      "type": "function",
      "constant": true
    }
  ],
  "bytecode": "0x60806040526000600a60006101000a81548160ff0219169083151502179055506000600f553480156200003157600080fd5b50604051620047fa380380620047fa8339818101604052810190620000579190620004db565b6040518060400160405280600581526020017f41737365740000000000000000000000000000000000000000000000000000008152506040518060400160405280600381526020017f44454100000000000000000000000000000000000000000000000000000000008152508282828160009080519060200190620000de92919062000414565b508060019080519060200190620000f792919062000414565b50505060006200010c6200020760201b60201c565b905080600d60006101000a81548173ffffffffffffffffffffffffffffffffffffffff021916908373ffffffffffffffffffffffffffffffffffffffff1602179055508073ffffffffffffffffffffffffffffffffffffffff16600073ffffffffffffffffffffffffffffffffffffffff167f8be0079c531659141344cd1fd0a4f28419497f9722a3daafe3b4186f6b6457e060405160405180910390a35080600e60006101000a81548173ffffffffffffffffffffffffffffffffffffffff021916908373ffffffffffffffffffffffffffffffffffffffff160217905550620001fd836200022360201b60201c565b50505050620006b8565b60006200021e620002a560201b620016d21760201c565b905090565b600a60009054906101000a900460ff161562000276576040517f08c379a00000000000000000000000000000000000000000000000000000000081526004016200026d90620005c8565b60405180910390fd5b62000287816200035860201b60201c565b6001600a60006101000a81548160ff02191690831515021790555050565b60003073ffffffffffffffffffffffffffffffffffffffff163373ffffffffffffffffffffffffffffffffffffffff1614156200035157600080368080601f016020809104026020016040519081016040528093929190818152602001838380828437600081840152601f19601f820116905080830192505050505050509050600080369050905073ffffffffffffffffffffffffffffffffffffffff81830151169250505062000355565b3390505b90565b6040518060800160405280604f8152602001620047ab604f91398051906020012081805190602001206040518060400160405280600181526020017f31000000000000000000000000000000000000000000000000000000000000008152508051906020012030620003cf6200040760201b60201c565b60001b604051602001620003e89594939291906200056b565b60405160208183030381529060405280519060200120600b8190555050565b6000804690508091505090565b828054620004229062000639565b90600052602060002090601f01602090048101928262000446576000855562000492565b82601f106200046157805160ff191683800117855562000492565b8280016001018555821562000492579182015b828111156200049157825182559160200191906001019062000474565b5b509050620004a19190620004a5565b5090565b5b80821115620004c0576000816000905550600101620004a6565b5090565b600081519050620004d5816200069e565b92915050565b600060208284031215620004ee57600080fd5b6000620004fe84828501620004c4565b91505092915050565b6200051281620005fb565b82525050565b62000523816200060f565b82525050565b600062000538600e83620005ea565b91507f616c726561647920696e697465640000000000000000000000000000000000006000830152602082019050919050565b600060a08201905062000582600083018862000518565b62000591602083018762000518565b620005a0604083018662000518565b620005af606083018562000507565b620005be608083018462000518565b9695505050505050565b60006020820190508181036000830152620005e38162000529565b9050919050565b600082825260208201905092915050565b6000620006088262000619565b9050919050565b6000819050919050565b600073ffffffffffffffffffffffffffffffffffffffff82169050919050565b600060028204905060018216806200065257607f821691505b602082108114156200066957620006686200066f565b5b50919050565b7f4e487b7100000000000000000000000000000000000000000000000000000000600052602260045260246000fd5b620006a981620005fb565b8114620006b557600080fd5b50565b6140e380620006c86000396000f3fe6080604052600436106101815760003560e01c80634f6ccce7116100d157806395d89b411161008a578063c87b56dd11610064578063c87b56dd1461059b578063d547cfb7146105d8578063e985e9c514610603578063f2fde38b1461064057610181565b806395d89b411461051e578063a22cb46514610549578063b88d4fde1461057257610181565b80634f6ccce7146103fc5780636352211e1461043957806370a0823114610476578063715018a6146104b3578063755edd17146104ca5780638da5cb5b146104f357610181565b806318160ddd1161013e5780632d0335ab116101185780632d0335ab1461032e5780632f745c591461036b5780633408e470146103a857806342842e0e146103d357610181565b806318160ddd146102af57806320379ee5146102da57806323b872dd1461030557610181565b806301ffc9a71461018657806306fdde03146101c3578063081812fc146101ee578063095ea7b31461022b5780630c53c51c146102545780630f7e597014610284575b600080fd5b34801561019257600080fd5b506101ad60048036038101906101a89190612d20565b610669565b6040516101ba91906137d9565b60405180910390f35b3480156101cf57600080fd5b506101d86106e3565b6040516101e591906138bb565b60405180910390f35b3480156101fa57600080fd5b5061021560048036038101906102109190612d9b565b610775565b6040516102229190613734565b60405180910390f35b34801561023757600080fd5b50610252600480360381019061024d9190612ce4565b6107fa565b005b61026e60048036038101906102699190612c55565b610912565b60405161027b9190613899565b60405180910390f35b34801561029057600080fd5b50610299610b84565b6040516102a691906138bb565b60405180910390f35b3480156102bb57600080fd5b506102c4610bbd565b6040516102d19190613b5d565b60405180910390f35b3480156102e657600080fd5b506102ef610bca565b6040516102fc91906137f4565b60405180910390f35b34801561031157600080fd5b5061032c60048036038101906103279190612b4f565b610bd4565b005b34801561033a57600080fd5b5061035560048036038101906103509190612aea565b610c34565b6040516103629190613b5d565b60405180910390f35b34801561037757600080fd5b50610392600480360381019061038d9190612ce4565b610c7d565b60405161039f9190613b5d565b60405180910390f35b3480156103b457600080fd5b506103bd610d22565b6040516103ca9190613b5d565b60405180910390f35b3480156103df57600080fd5b506103fa60048036038101906103f59190612b4f565b610d2f565b005b34801561040857600080fd5b50610423600480360381019061041e9190612d9b565b610d4f565b6040516104309190613b5d565b60405180910390f35b34801561044557600080fd5b50610460600480360381019061045b9190612d9b565b610de6565b60405161046d9190613734565b60405180910390f35b34801561048257600080fd5b5061049d60048036038101906104989190612aea565b610e98565b6040516104aa9190613b5d565b60405180910390f35b3480156104bf57600080fd5b506104c8610f50565b005b3480156104d657600080fd5b506104f160048036038101906104ec9190612aea565b61108d565b005b3480156104ff57600080fd5b5061050861112b565b6040516105159190613734565b60405180910390f35b34801561052a57600080fd5b50610533611155565b60405161054091906138bb565b60405180910390f35b34801561055557600080fd5b50610570600480360381019061056b9190612c19565b6111e7565b005b34801561057e57600080fd5b5061059960048036038101906105949190612b9e565b611368565b005b3480156105a757600080fd5b506105c260048036038101906105bd9190612d9b565b6113ca565b6040516105cf91906138bb565b60405180910390f35b3480156105e457600080fd5b506105ed611404565b6040516105fa91906138bb565b60405180910390f35b34801561060f57600080fd5b5061062a60048036038101906106259190612b13565b611424565b60405161063791906137d9565b60405180910390f35b34801561064c57600080fd5b5061066760048036038101906106629190612aea565b611526565b005b60007f780e9d63000000000000000000000000000000000000000000000000000000007bffffffffffffffffffffffffffffffffffffffffffffffffffffffff1916827bffffffffffffffffffffffffffffffffffffffffffffffffffffffff191614806106dc57506106db82611783565b5b9050919050565b6060600080546106f290613dd3565b80601f016020809104026020016040519081016040528092919081815260200182805461071e90613dd3565b801561076b5780601f106107405761010080835404028352916020019161076b565b820191906000526020600020905b81548152906001019060200180831161074e57829003601f168201915b5050505050905090565b600061078082611865565b6107bf576040517f08c379a00000000000000000000000000000000000000000000000000000000081526004016107b690613a7d565b60405180910390fd5b6004600083815260200190815260200160002060009054906101000a900473ffffffffffffffffffffffffffffffffffffffff169050919050565b600061080582610de6565b90508073ffffffffffffffffffffffffffffffffffffffff168373ffffffffffffffffffffffffffffffffffffffff161415610876576040517f08c379a000000000000000000000000000000000000000000000000000000000815260040161086d90613afd565b60405180910390fd5b8073ffffffffffffffffffffffffffffffffffffffff166108956118d1565b73ffffffffffffffffffffffffffffffffffffffff1614806108c457506108c3816108be6118d1565b611424565b5b610903576040517f08c379a00000000000000000000000000000000000000000000000000000000081526004016108fa906139fd565b60405180910390fd5b61090d83836118e0565b505050565b606060006040518060600160405280600c60008a73ffffffffffffffffffffffffffffffffffffffff1673ffffffffffffffffffffffffffffffffffffffff1681526020019081526020016000205481526020018873ffffffffffffffffffffffffffffffffffffffff1681526020018781525090506109958782878787611999565b6109d4576040517f08c379a00000000000000000000000000000000000000000000000000000000081526004016109cb90613add565b60405180910390fd5b610a276001600c60008a73ffffffffffffffffffffffffffffffffffffffff1673ffffffffffffffffffffffffffffffffffffffff16815260200190815260200160002054611aa290919063ffffffff16565b600c60008973ffffffffffffffffffffffffffffffffffffffff1673ffffffffffffffffffffffffffffffffffffffff168152602001908152602001600020819055507f5845892132946850460bff5a0083f71031bc5bf9aadcd40f1de79423eac9b10b873388604051610a9d9392919061374f565b60405180910390a16000803073ffffffffffffffffffffffffffffffffffffffff16888a604051602001610ad29291906136b1565b604051602081830303815290604052604051610aee919061369a565b6000604051808303816000865af19150503d8060008114610b2b576040519150601f19603f3d011682016040523d82523d6000602084013e610b30565b606091505b509150915081610b75576040517f08c379a0000000000000000000000000000000000000000000000000000000008152600401610b6c9061393d565b60405180910390fd5b80935050505095945050505050565b6040518060400160405280600181526020017f310000000000000000000000000000000000000000000000000000000000000081525081565b6000600880549050905090565b6000600b54905090565b610be5610bdf6118d1565b82611ab8565b610c24576040517f08c379a0000000000000000000000000000000000000000000000000000000008152600401610c1b90613b1d565b60405180910390fd5b610c2f838383611b96565b505050565b6000600c60008373ffffffffffffffffffffffffffffffffffffffff1673ffffffffffffffffffffffffffffffffffffffff168152602001908152602001600020549050919050565b6000610c8883610e98565b8210610cc9576040517f08c379a0000000000000000000000000000000000000000000000000000000008152600401610cc0906138dd565b60405180910390fd5b600660008473ffffffffffffffffffffffffffffffffffffffff1673ffffffffffffffffffffffffffffffffffffffff168152602001908152602001600020600083815260200190815260200160002054905092915050565b6000804690508091505090565b610d4a83838360405180602001604052806000815250611368565b505050565b6000610d59610bbd565b8210610d9a576040517f08c379a0000000000000000000000000000000000000000000000000000000008152600401610d9190613b3d565b60405180910390fd5b60088281548110610dd4577f4e487b7100000000000000000000000000000000000000000000000000000000600052603260045260246000fd5b90600052602060002001549050919050565b6000806002600084815260200190815260200160002060009054906101000a900473ffffffffffffffffffffffffffffffffffffffff169050600073ffffffffffffffffffffffffffffffffffffffff168173ffffffffffffffffffffffffffffffffffffffff161415610e8f576040517f08c379a0000000000000000000000000000000000000000000000000000000008152600401610e8690613a3d565b60405180910390fd5b80915050919050565b60008073ffffffffffffffffffffffffffffffffffffffff168273ffffffffffffffffffffffffffffffffffffffff161415610f09576040517f08c379a0000000000000000000000000000000000000000000000000000000008152600401610f0090613a1d565b60405180910390fd5b600360008373ffffffffffffffffffffffffffffffffffffffff1673ffffffffffffffffffffffffffffffffffffffff168152602001908152602001600020549050919050565b610f586118d1565b73ffffffffffffffffffffffffffffffffffffffff16610f7661112b565b73ffffffffffffffffffffffffffffffffffffffff1614610fcc576040517f08c379a0000000000000000000000000000000000000000000000000000000008152600401610fc390613a9d565b60405180910390fd5b600073ffffffffffffffffffffffffffffffffffffffff16600d60009054906101000a900473ffffffffffffffffffffffffffffffffffffffff1673ffffffffffffffffffffffffffffffffffffffff167f8be0079c531659141344cd1fd0a4f28419497f9722a3daafe3b4186f6b6457e060405160405180910390a36000600d60006101000a81548173ffffffffffffffffffffffffffffffffffffffff021916908373ffffffffffffffffffffffffffffffffffffffff160217905550565b6110956118d1565b73ffffffffffffffffffffffffffffffffffffffff166110b361112b565b73ffffffffffffffffffffffffffffffffffffffff1614611109576040517f08c379a000000000000000000000000000000000000000000000000000000000815260040161110090613a9d565b60405180910390fd5b6000611113611df2565b905061111f8282611e0f565b611127611fdd565b5050565b6000600d60009054906101000a900473ffffffffffffffffffffffffffffffffffffffff16905090565b60606001805461116490613dd3565b80601f016020809104026020016040519081016040528092919081815260200182805461119090613dd3565b80156111dd5780601f106111b2576101008083540402835291602001916111dd565b820191906000526020600020905b8154815290600101906020018083116111c057829003601f168201915b5050505050905090565b6111ef6118d1565b73ffffffffffffffffffffffffffffffffffffffff168273ffffffffffffffffffffffffffffffffffffffff16141561125d576040517f08c379a00000000000000000000000000000000000000000000000000000000081526004016112549061399d565b60405180910390fd5b806005600061126a6118d1565b73ffffffffffffffffffffffffffffffffffffffff1673ffffffffffffffffffffffffffffffffffffffff16815260200190815260200160002060008473ffffffffffffffffffffffffffffffffffffffff1673ffffffffffffffffffffffffffffffffffffffff16815260200190815260200160002060006101000a81548160ff0219169083151502179055508173ffffffffffffffffffffffffffffffffffffffff166113176118d1565b73ffffffffffffffffffffffffffffffffffffffff167f17307eab39ab6107e8899845ad3d59bd9653f200f220920489ca2b5937696c318360405161135c91906137d9565b60405180910390a35050565b6113796113736118d1565b83611ab8565b6113b8576040517f08c379a00000000000000000000000000000000000000000000000000000000081526004016113af90613b1d565b60405180910390fd5b6113c484848484611ff7565b50505050565b60606113d4611404565b6113dd83612053565b6040516020016113ee9291906136d9565b6040516020818303038152906040529050919050565b606060405180608001604052806042815260200161402960429139905090565b600080600e60009054906101000a900473ffffffffffffffffffffffffffffffffffffffff1690508273ffffffffffffffffffffffffffffffffffffffff168173ffffffffffffffffffffffffffffffffffffffff1663c4552791866040518263ffffffff1660e01b815260040161149c9190613734565b60206040518083038186803b1580156114b457600080fd5b505afa1580156114c8573d6000803e3d6000fd5b505050506040513d601f19601f820116820180604052508101906114ec9190612d72565b73ffffffffffffffffffffffffffffffffffffffff161415611512576001915050611520565b61151c8484612200565b9150505b92915050565b61152e6118d1565b73ffffffffffffffffffffffffffffffffffffffff1661154c61112b565b73ffffffffffffffffffffffffffffffffffffffff16146115a2576040517f08c379a000000000000000000000000000000000000000000000000000000000815260040161159990613a9d565b60405180910390fd5b600073ffffffffffffffffffffffffffffffffffffffff168173ffffffffffffffffffffffffffffffffffffffff161415611612576040517f08c379a00000000000000000000000000000000000000000000000000000000081526004016116099061391d565b60405180910390fd5b8073ffffffffffffffffffffffffffffffffffffffff16600d60009054906101000a900473ffffffffffffffffffffffffffffffffffffffff1673ffffffffffffffffffffffffffffffffffffffff167f8be0079c531659141344cd1fd0a4f28419497f9722a3daafe3b4186f6b6457e060405160405180910390a380600d60006101000a81548173ffffffffffffffffffffffffffffffffffffffff021916908373ffffffffffffffffffffffffffffffffffffffff16021790555050565b60003073ffffffffffffffffffffffffffffffffffffffff163373ffffffffffffffffffffffffffffffffffffffff16141561177c57600080368080601f016020809104026020016040519081016040528093929190818152602001838380828437600081840152601f19601f820116905080830192505050505050509050600080369050905073ffffffffffffffffffffffffffffffffffffffff818301511692505050611780565b3390505b90565b60007f80ac58cd000000000000000000000000000000000000000000000000000000007bffffffffffffffffffffffffffffffffffffffffffffffffffffffff1916827bffffffffffffffffffffffffffffffffffffffffffffffffffffffff1916148061184e57507f5b5e139f000000000000000000000000000000000000000000000000000000007bffffffffffffffffffffffffffffffffffffffffffffffffffffffff1916827bffffffffffffffffffffffffffffffffffffffffffffffffffffffff1916145b8061185e575061185d82612294565b5b9050919050565b60008073ffffffffffffffffffffffffffffffffffffffff166002600084815260200190815260200160002060009054906101000a900473ffffffffffffffffffffffffffffffffffffffff1673ffffffffffffffffffffffffffffffffffffffff1614159050919050565b60006118db6116d2565b905090565b816004600083815260200190815260200160002060006101000a81548173ffffffffffffffffffffffffffffffffffffffff021916908373ffffffffffffffffffffffffffffffffffffffff160217905550808273ffffffffffffffffffffffffffffffffffffffff1661195383610de6565b73ffffffffffffffffffffffffffffffffffffffff167f8c5be1e5ebec7d5bd14f71427d1e84f3dd0314c0f7b2291e5b200ac8c7c3b92560405160405180910390a45050565b60008073ffffffffffffffffffffffffffffffffffffffff168673ffffffffffffffffffffffffffffffffffffffff161415611a0a576040517f08c379a0000000000000000000000000000000000000000000000000000000008152600401611a01906139dd565b60405180910390fd5b6001611a1d611a18876122fe565b612366565b83868660405160008152602001604052604051611a3d9493929190613854565b6020604051602081039080840390855afa158015611a5f573d6000803e3d6000fd5b5050506020604051035173ffffffffffffffffffffffffffffffffffffffff168673ffffffffffffffffffffffffffffffffffffffff1614905095945050505050565b60008183611ab09190613c27565b905092915050565b6000611ac382611865565b611b02576040517f08c379a0000000000000000000000000000000000000000000000000000000008152600401611af9906139bd565b60405180910390fd5b6000611b0d83610de6565b90508073ffffffffffffffffffffffffffffffffffffffff168473ffffffffffffffffffffffffffffffffffffffff161480611b7c57508373ffffffffffffffffffffffffffffffffffffffff16611b6484610775565b73ffffffffffffffffffffffffffffffffffffffff16145b80611b8d5750611b8c8185611424565b5b91505092915050565b8273ffffffffffffffffffffffffffffffffffffffff16611bb682610de6565b73ffffffffffffffffffffffffffffffffffffffff1614611c0c576040517f08c379a0000000000000000000000000000000000000000000000000000000008152600401611c0390613abd565b60405180910390fd5b600073ffffffffffffffffffffffffffffffffffffffff168273ffffffffffffffffffffffffffffffffffffffff161415611c7c576040517f08c379a0000000000000000000000000000000000000000000000000000000008152600401611c739061397d565b60405180910390fd5b611c8783838361239f565b611c926000826118e0565b6001600360008573ffffffffffffffffffffffffffffffffffffffff1673ffffffffffffffffffffffffffffffffffffffff1681526020019081526020016000206000828254611ce29190613cae565b925050819055506001600360008473ffffffffffffffffffffffffffffffffffffffff1673ffffffffffffffffffffffffffffffffffffffff1681526020019081526020016000206000828254611d399190613c27565b92505081905550816002600083815260200190815260200160002060006101000a81548173ffffffffffffffffffffffffffffffffffffffff021916908373ffffffffffffffffffffffffffffffffffffffff160217905550808273ffffffffffffffffffffffffffffffffffffffff168473ffffffffffffffffffffffffffffffffffffffff167fddf252ad1be2c89b69c2b068fc378daa952ba7f163c4a11628f55a4df523b3ef60405160405180910390a4505050565b6000611e0a6001600f54611aa290919063ffffffff16565b905090565b600073ffffffffffffffffffffffffffffffffffffffff168273ffffffffffffffffffffffffffffffffffffffff161415611e7f576040517f08c379a0000000000000000000000000000000000000000000000000000000008152600401611e7690613a5d565b60405180910390fd5b611e8881611865565b15611ec8576040517f08c379a0000000000000000000000000000000000000000000000000000000008152600401611ebf9061395d565b60405180910390fd5b611ed46000838361239f565b6001600360008473ffffffffffffffffffffffffffffffffffffffff1673ffffffffffffffffffffffffffffffffffffffff1681526020019081526020016000206000828254611f249190613c27565b92505081905550816002600083815260200190815260200160002060006101000a81548173ffffffffffffffffffffffffffffffffffffffff021916908373ffffffffffffffffffffffffffffffffffffffff160217905550808273ffffffffffffffffffffffffffffffffffffffff16600073ffffffffffffffffffffffffffffffffffffffff167fddf252ad1be2c89b69c2b068fc378daa952ba7f163c4a11628f55a4df523b3ef60405160405180910390a45050565b600f6000815480929190611ff090613e05565b9190505550565b612002848484611b96565b61200e848484846124b3565b61204d576040517f08c379a0000000000000000000000000000000000000000000000000000000008152600401612044906138fd565b60405180910390fd5b50505050565b6060600082141561209b576040518060400160405280600181526020017f300000000000000000000000000000000000000000000000000000000000000081525090506121fb565b600082905060005b600082146120cd5780806120b690613e05565b915050600a826120c69190613c7d565b91506120a3565b60008167ffffffffffffffff81111561210f577f4e487b7100000000000000000000000000000000000000000000000000000000600052604160045260246000fd5b6040519080825280601f01601f1916602001820160405280156121415781602001600182028036833780820191505090505b5090505b600085146121f45760018261215a9190613cae565b9150600a856121699190613e7c565b60306121759190613c27565b60f81b8183815181106121b1577f4e487b7100000000000000000000000000000000000000000000000000000000600052603260045260246000fd5b60200101907effffffffffffffffffffffffffffffffffffffffffffffffffffffffffffff1916908160001a905350600a856121ed9190613c7d565b9450612145565b8093505050505b919050565b6000600560008473ffffffffffffffffffffffffffffffffffffffff1673ffffffffffffffffffffffffffffffffffffffff16815260200190815260200160002060008373ffffffffffffffffffffffffffffffffffffffff1673ffffffffffffffffffffffffffffffffffffffff16815260200190815260200160002060009054906101000a900460ff16905092915050565b60007f01ffc9a7000000000000000000000000000000000000000000000000000000007bffffffffffffffffffffffffffffffffffffffffffffffffffffffff1916827bffffffffffffffffffffffffffffffffffffffffffffffffffffffff1916149050919050565b600060405180608001604052806043815260200161406b604391398051906020012082600001518360200151846040015180519060200120604051602001612349949392919061380f565b604051602081830303815290604052805190602001209050919050565b6000612370610bca565b826040516020016123829291906136fd565b604051602081830303815290604052805190602001209050919050565b6123aa83838361264a565b600073ffffffffffffffffffffffffffffffffffffffff168373ffffffffffffffffffffffffffffffffffffffff1614156123ed576123e88161264f565b61242c565b8173ffffffffffffffffffffffffffffffffffffffff168373ffffffffffffffffffffffffffffffffffffffff161461242b5761242a8382612698565b5b5b600073ffffffffffffffffffffffffffffffffffffffff168273ffffffffffffffffffffffffffffffffffffffff16141561246f5761246a81612805565b6124ae565b8273ffffffffffffffffffffffffffffffffffffffff168273ffffffffffffffffffffffffffffffffffffffff16146124ad576124ac8282612948565b5b5b505050565b60006124d48473ffffffffffffffffffffffffffffffffffffffff166129c7565b1561263d578373ffffffffffffffffffffffffffffffffffffffff1663150b7a026124fd6118d1565b8786866040518563ffffffff1660e01b815260040161251f949392919061378d565b602060405180830381600087803b15801561253957600080fd5b505af192505050801561256a57506040513d601f19601f820116820180604052508101906125679190612d49565b60015b6125ed573d806000811461259a576040519150601f19603f3d011682016040523d82523d6000602084013e61259f565b606091505b506000815114156125e5576040517f08c379a00000000000000000000000000000000000000000000000000000000081526004016125dc906138fd565b60405180910390fd5b805181602001fd5b63150b7a0260e01b7bffffffffffffffffffffffffffffffffffffffffffffffffffffffff1916817bffffffffffffffffffffffffffffffffffffffffffffffffffffffff191614915050612642565b600190505b949350505050565b505050565b6008805490506009600083815260200190815260200160002081905550600881908060018154018082558091505060019003906000526020600020016000909190919091505550565b600060016126a584610e98565b6126af9190613cae565b9050600060076000848152602001908152602001600020549050818114612794576000600660008673ffffffffffffffffffffffffffffffffffffffff1673ffffffffffffffffffffffffffffffffffffffff168152602001908152602001600020600084815260200190815260200160002054905080600660008773ffffffffffffffffffffffffffffffffffffffff1673ffffffffffffffffffffffffffffffffffffffff168152602001908152602001600020600084815260200190815260200160002081905550816007600083815260200190815260200160002081905550505b6007600084815260200190815260200160002060009055600660008573ffffffffffffffffffffffffffffffffffffffff1673ffffffffffffffffffffffffffffffffffffffff16815260200190815260200160002060008381526020019081526020016000206000905550505050565b600060016008805490506128199190613cae565b905060006009600084815260200190815260200160002054905060006008838154811061286f577f4e487b7100000000000000000000000000000000000000000000000000000000600052603260045260246000fd5b9060005260206000200154905080600883815481106128b7577f4e487b7100000000000000000000000000000000000000000000000000000000600052603260045260246000fd5b90600052602060002001819055508160096000838152602001908152602001600020819055506009600085815260200190815260200160002060009055600880548061292c577f4e487b7100000000000000000000000000000000000000000000000000000000600052603160045260246000fd5b6001900381819060005260206000200160009055905550505050565b600061295383610e98565b905081600660008573ffffffffffffffffffffffffffffffffffffffff1673ffffffffffffffffffffffffffffffffffffffff168152602001908152602001600020600083815260200190815260200160002081905550806007600084815260200190815260200160002081905550505050565b600080823b905060008111915050919050565b60006129ed6129e884613ba9565b613b78565b905082815260208101848484011115612a0557600080fd5b612a10848285613d91565b509392505050565b600081359050612a2781613f87565b92915050565b600081359050612a3c81613f9e565b92915050565b600081359050612a5181613fb5565b92915050565b600081359050612a6681613fcc565b92915050565b600081519050612a7b81613fcc565b92915050565b600082601f830112612a9257600080fd5b8135612aa28482602086016129da565b91505092915050565b600081519050612aba81613fe3565b92915050565b600081359050612acf81613ffa565b92915050565b600081359050612ae481614011565b92915050565b600060208284031215612afc57600080fd5b6000612b0a84828501612a18565b91505092915050565b60008060408385031215612b2657600080fd5b6000612b3485828601612a18565b9250506020612b4585828601612a18565b9150509250929050565b600080600060608486031215612b6457600080fd5b6000612b7286828701612a18565b9350506020612b8386828701612a18565b9250506040612b9486828701612ac0565b9150509250925092565b60008060008060808587031215612bb457600080fd5b6000612bc287828801612a18565b9450506020612bd387828801612a18565b9350506040612be487828801612ac0565b925050606085013567ffffffffffffffff811115612c0157600080fd5b612c0d87828801612a81565b91505092959194509250565b60008060408385031215612c2c57600080fd5b6000612c3a85828601612a18565b9250506020612c4b85828601612a2d565b9150509250929050565b600080600080600060a08688031215612c6d57600080fd5b6000612c7b88828901612a18565b955050602086013567ffffffffffffffff811115612c9857600080fd5b612ca488828901612a81565b9450506040612cb588828901612a42565b9350506060612cc688828901612a42565b9250506080612cd788828901612ad5565b9150509295509295909350565b60008060408385031215612cf757600080fd5b6000612d0585828601612a18565b9250506020612d1685828601612ac0565b9150509250929050565b600060208284031215612d3257600080fd5b6000612d4084828501612a57565b91505092915050565b600060208284031215612d5b57600080fd5b6000612d6984828501612a6c565b91505092915050565b600060208284031215612d8457600080fd5b6000612d9284828501612aab565b91505092915050565b600060208284031215612dad57600080fd5b6000612dbb84828501612ac0565b91505092915050565b612dcd81613cf4565b82525050565b612ddc81613ce2565b82525050565b612df3612dee82613ce2565b613e4e565b82525050565b612e0281613d06565b82525050565b612e1181613d12565b82525050565b612e28612e2382613d12565b613e60565b82525050565b6000612e3982613bd9565b612e438185613bef565b9350612e53818560208601613da0565b612e5c81613f69565b840191505092915050565b6000612e7282613bd9565b612e7c8185613c00565b9350612e8c818560208601613da0565b80840191505092915050565b6000612ea382613be4565b612ead8185613c0b565b9350612ebd818560208601613da0565b612ec681613f69565b840191505092915050565b6000612edc82613be4565b612ee68185613c1c565b9350612ef6818560208601613da0565b80840191505092915050565b6000612f0f602b83613c0b565b91507f455243373231456e756d657261626c653a206f776e657220696e646578206f7560008301527f74206f6620626f756e64730000000000000000000000000000000000000000006020830152604082019050919050565b6000612f75603283613c0b565b91507f4552433732313a207472616e7366657220746f206e6f6e20455243373231526560008301527f63656976657220696d706c656d656e74657200000000000000000000000000006020830152604082019050919050565b6000612fdb602683613c0b565b91507f4f776e61626c653a206e6577206f776e657220697320746865207a65726f206160008301527f64647265737300000000000000000000000000000000000000000000000000006020830152604082019050919050565b6000613041601c83613c0b565b91507f46756e6374696f6e2063616c6c206e6f74207375636365737366756c000000006000830152602082019050919050565b6000613081601c83613c0b565b91507f4552433732313a20746f6b656e20616c7265616479206d696e746564000000006000830152602082019050919050565b60006130c1600283613c1c565b91507f19010000000000000000000000000000000000000000000000000000000000006000830152600282019050919050565b6000613101602483613c0b565b91507f4552433732313a207472616e7366657220746f20746865207a65726f2061646460008301527f72657373000000000000000000000000000000000000000000000000000000006020830152604082019050919050565b6000613167601983613c0b565b91507f4552433732313a20617070726f766520746f2063616c6c6572000000000000006000830152602082019050919050565b60006131a7602c83613c0b565b91507f4552433732313a206f70657261746f7220717565727920666f72206e6f6e657860008301527f697374656e7420746f6b656e00000000000000000000000000000000000000006020830152604082019050919050565b600061320d602583613c0b565b91507f4e61746976654d6574615472616e73616374696f6e3a20494e56414c49445f5360008301527f49474e45520000000000000000000000000000000000000000000000000000006020830152604082019050919050565b6000613273603883613c0b565b91507f4552433732313a20617070726f76652063616c6c6572206973206e6f74206f7760008301527f6e6572206e6f7220617070726f76656420666f7220616c6c00000000000000006020830152604082019050919050565b60006132d9602a83613c0b565b91507f4552433732313a2062616c616e636520717565727920666f7220746865207a6560008301527f726f2061646472657373000000000000000000000000000000000000000000006020830152604082019050919050565b600061333f602983613c0b565b91507f4552433732313a206f776e657220717565727920666f72206e6f6e657869737460008301527f656e7420746f6b656e00000000000000000000000000000000000000000000006020830152604082019050919050565b60006133a5602083613c0b565b91507f4552433732313a206d696e7420746f20746865207a65726f20616464726573736000830152602082019050919050565b60006133e5602c83613c0b565b91507f4552433732313a20617070726f76656420717565727920666f72206e6f6e657860008301527f697374656e7420746f6b656e00000000000000000000000000000000000000006020830152604082019050919050565b600061344b602083613c0b565b91507f4f776e61626c653a2063616c6c6572206973206e6f7420746865206f776e65726000830152602082019050919050565b600061348b602983613c0b565b91507f4552433732313a207472616e73666572206f6620746f6b656e2074686174206960008301527f73206e6f74206f776e00000000000000000000000000000000000000000000006020830152604082019050919050565b60006134f1602183613c0b565b91507f5369676e657220616e64207369676e617475726520646f206e6f74206d61746360008301527f68000000000000000000000000000000000000000000000000000000000000006020830152604082019050919050565b6000613557602183613c0b565b91507f4552433732313a20617070726f76616c20746f2063757272656e74206f776e6560008301527f72000000000000000000000000000000000000000000000000000000000000006020830152604082019050919050565b60006135bd603183613c0b565b91507f4552433732313a207472616e736665722063616c6c6572206973206e6f74206f60008301527f776e6572206e6f7220617070726f7665640000000000000000000000000000006020830152604082019050919050565b6000613623602c83613c0b565b91507f455243373231456e756d657261626c653a20676c6f62616c20696e646578206f60008301527f7574206f6620626f756e647300000000000000000000000000000000000000006020830152604082019050919050565b61368581613d7a565b82525050565b61369481613d84565b82525050565b60006136a68284612e67565b915081905092915050565b60006136bd8285612e67565b91506136c98284612de2565b6014820191508190509392505050565b60006136e58285612ed1565b91506136f18284612ed1565b91508190509392505050565b6000613708826130b4565b91506137148285612e17565b6020820191506137248284612e17565b6020820191508190509392505050565b60006020820190506137496000830184612dd3565b92915050565b60006060820190506137646000830186612dd3565b6137716020830185612dc4565b81810360408301526137838184612e2e565b9050949350505050565b60006080820190506137a26000830187612dd3565b6137af6020830186612dd3565b6137bc604083018561367c565b81810360608301526137ce8184612e2e565b905095945050505050565b60006020820190506137ee6000830184612df9565b92915050565b60006020820190506138096000830184612e08565b92915050565b60006080820190506138246000830187612e08565b613831602083018661367c565b61383e6040830185612dd3565b61384b6060830184612e08565b95945050505050565b60006080820190506138696000830187612e08565b613876602083018661368b565b6138836040830185612e08565b6138906060830184612e08565b95945050505050565b600060208201905081810360008301526138b38184612e2e565b905092915050565b600060208201905081810360008301526138d58184612e98565b905092915050565b600060208201905081810360008301526138f681612f02565b9050919050565b6000602082019050818103600083015261391681612f68565b9050919050565b6000602082019050818103600083015261393681612fce565b9050919050565b6000602082019050818103600083015261395681613034565b9050919050565b6000602082019050818103600083015261397681613074565b9050919050565b60006020820190508181036000830152613996816130f4565b9050919050565b600060208201905081810360008301526139b68161315a565b9050919050565b600060208201905081810360008301526139d68161319a565b9050919050565b600060208201905081810360008301526139f681613200565b9050919050565b60006020820190508181036000830152613a1681613266565b9050919050565b60006020820190508181036000830152613a36816132cc565b9050919050565b60006020820190508181036000830152613a5681613332565b9050919050565b60006020820190508181036000830152613a7681613398565b9050919050565b60006020820190508181036000830152613a96816133d8565b9050919050565b60006020820190508181036000830152613ab68161343e565b9050919050565b60006020820190508181036000830152613ad68161347e565b9050919050565b60006020820190508181036000830152613af6816134e4565b9050919050565b60006020820190508181036000830152613b168161354a565b9050919050565b60006020820190508181036000830152613b36816135b0565b9050919050565b60006020820190508181036000830152613b5681613616565b9050919050565b6000602082019050613b72600083018461367c565b92915050565b6000604051905081810181811067ffffffffffffffff82111715613b9f57613b9e613f3a565b5b8060405250919050565b600067ffffffffffffffff821115613bc457613bc3613f3a565b5b601f19601f8301169050602081019050919050565b600081519050919050565b600081519050919050565b600082825260208201905092915050565b600081905092915050565b600082825260208201905092915050565b600081905092915050565b6000613c3282613d7a565b9150613c3d83613d7a565b9250827fffffffffffffffffffffffffffffffffffffffffffffffffffffffffffffffff03821115613c7257613c71613ead565b5b828201905092915050565b6000613c8882613d7a565b9150613c9383613d7a565b925082613ca357613ca2613edc565b5b828204905092915050565b6000613cb982613d7a565b9150613cc483613d7a565b925082821015613cd757613cd6613ead565b5b828203905092915050565b6000613ced82613d5a565b9050919050565b6000613cff82613d5a565b9050919050565b60008115159050919050565b6000819050919050565b60007fffffffff0000000000000000000000000000000000000000000000000000000082169050919050565b6000613d5382613ce2565b9050919050565b600073ffffffffffffffffffffffffffffffffffffffff82169050919050565b6000819050919050565b600060ff82169050919050565b82818337600083830152505050565b60005b83811015613dbe578082015181840152602081019050613da3565b83811115613dcd576000848401525b50505050565b60006002820490506001821680613deb57607f821691505b60208210811415613dff57613dfe613f0b565b5b50919050565b6000613e1082613d7a565b91507fffffffffffffffffffffffffffffffffffffffffffffffffffffffffffffffff821415613e4357613e42613ead565b5b600182019050919050565b6000613e5982613e6a565b9050919050565b6000819050919050565b6000613e7582613f7a565b9050919050565b6000613e8782613d7a565b9150613e9283613d7a565b925082613ea257613ea1613edc565b5b828206905092915050565b7f4e487b7100000000000000000000000000000000000000000000000000000000600052601160045260246000fd5b7f4e487b7100000000000000000000000000000000000000000000000000000000600052601260045260246000fd5b7f4e487b7100000000000000000000000000000000000000000000000000000000600052602260045260246000fd5b7f4e487b7100000000000000000000000000000000000000000000000000000000600052604160045260246000fd5b6000601f19601f8301169050919050565b60008160601b9050919050565b613f9081613ce2565b8114613f9b57600080fd5b50565b613fa781613d06565b8114613fb257600080fd5b50565b613fbe81613d12565b8114613fc957600080fd5b50565b613fd581613d1c565b8114613fe057600080fd5b50565b613fec81613d48565b8114613ff757600080fd5b50565b61400381613d7a565b811461400e57600080fd5b50565b61401a81613d84565b811461402557600080fd5b5056fe68747470733a2f2f6e3932657030326b64372e657865637574652d6170692e75732d656173742d322e616d617a6f6e6177732e636f6d2f50726f642f61737365742f4d6574615472616e73616374696f6e2875696e74323536206e6f6e63652c616464726573732066726f6d2c62797465732066756e6374696f6e5369676e617475726529a2646970667358221220a554742e916a69ca03429b9aa52d76f00b5cc8313480f36f2aefcb69bb01662764736f6c63430008000033454950373132446f6d61696e28737472696e67206e616d652c737472696e672076657273696f6e2c6164647265737320766572696679696e67436f6e74726163742c627974657333322073616c7429",
  "immutableReferences": {},
  "source": "// SPDX-License-Identifier: MIT\n\npragma solidity ^0.8.0;\n\nimport \"./ERC721Tradable.sol\";\n\n/**\n * @title Asset\n * Asset - a contract for my non-fungible assets.\n */\ncontract Asset is ERC721Tradable {\n    constructor(address _proxyRegistryAddress)\n        ERC721Tradable(\"Asset\", \"DEA\", _proxyRegistryAddress)\n    {}\n\n    function baseTokenURI() override public pure returns (string memory) {\n        return \"https://n92ep02kd7.execute-api.us-east-2.amazonaws.com/Prod/asset/\";\n    }\n}\n",
  "sourcePath": "/Users/dylanbeckwith/Desktop/data-economy-storefront/contracts/Asset.sol",
  "compiler": {
    "name": "solc",
    "version": "0.8.0+commit.c7dfd78e.Emscripten.clang"
  },
  "schemaVersion": "3.4.1",
  "updatedAt": "2021-05-22T15:59:43.467Z",
  "networkType": "ethereum",
  "devdoc": {
    "kind": "dev",
    "methods": {
      "approve(address,uint256)": {
        "details": "See {IERC721-approve}."
      },
      "balanceOf(address)": {
        "details": "See {IERC721-balanceOf}."
      },
      "getApproved(uint256)": {
        "details": "See {IERC721-getApproved}."
      },
      "mintTo(address)": {
        "details": "Mints a token to an address with a tokenURI.",
        "params": {
          "_to": "address of the future owner of the token"
        }
      },
      "name()": {
        "details": "See {IERC721Metadata-name}."
      },
      "owner()": {
        "details": "Returns the address of the current owner."
      },
      "ownerOf(uint256)": {
        "details": "See {IERC721-ownerOf}."
      },
      "renounceOwnership()": {
        "details": "Leaves the contract without owner. It will not be possible to call `onlyOwner` functions anymore. Can only be called by the current owner. NOTE: Renouncing ownership will leave the contract without an owner, thereby removing any functionality that is only available to the owner."
      },
      "safeTransferFrom(address,address,uint256)": {
        "details": "See {IERC721-safeTransferFrom}."
      },
      "safeTransferFrom(address,address,uint256,bytes)": {
        "details": "See {IERC721-safeTransferFrom}."
      },
      "setApprovalForAll(address,bool)": {
        "details": "See {IERC721-setApprovalForAll}."
      },
      "supportsInterface(bytes4)": {
        "details": "See {IERC165-supportsInterface}."
      },
      "symbol()": {
        "details": "See {IERC721Metadata-symbol}."
      },
      "tokenByIndex(uint256)": {
        "details": "See {IERC721Enumerable-tokenByIndex}."
      },
      "tokenOfOwnerByIndex(address,uint256)": {
        "details": "See {IERC721Enumerable-tokenOfOwnerByIndex}."
      },
      "totalSupply()": {
        "details": "See {IERC721Enumerable-totalSupply}."
      },
      "transferFrom(address,address,uint256)": {
        "details": "See {IERC721-transferFrom}."
      },
      "transferOwnership(address)": {
        "details": "Transfers ownership of the contract to a new account (`newOwner`). Can only be called by the current owner."
      }
    },
    "title": "Asset Asset - a contract for my non-fungible assets.",
    "version": 1
  },
  "userdoc": {
    "kind": "user",
    "methods": {
      "isApprovedForAll(address,address)": {
        "notice": "Override isApprovedForAll to whitelist user's OpenSea proxy accounts to enable gas-less listings."
      }
    },
    "version": 1
  }
}